{
  "_format": "hh-sol-artifact-1",
  "contractName": "FHESealedAuction",
  "sourceName": "src/FHESealedAuction.sol",
  "abi": [
    {
      "inputs": [
        {
          "internalType": "uint256",
          "name": "startAt",
          "type": "uint256"
        },
        {
          "internalType": "uint256",
          "name": "endAt",
          "type": "uint256"
        },
        {
          "internalType": "externalEuint64",
          "name": "reserveExt",
          "type": "bytes32"
        },
        {
          "internalType": "bytes",
          "name": "reserveProof",
          "type": "bytes"
        }
      ],
      "stateMutability": "nonpayable",
      "type": "constructor"
    },
    {
      "inputs": [],
      "name": "AuctionInactive",
      "type": "error"
    },
    {
      "inputs": [],
      "name": "BidMissing",
      "type": "error"
    },
    {
      "inputs": [],
      "name": "OutcomeMismatch",
      "type": "error"
    },
    {
      "inputs": [],
      "name": "OutcomePending",
      "type": "error"
    },
    {
      "anonymous": false,
      "inputs": [
        {
          "indexed": false,
          "internalType": "uint256",
          "name": "startAt",
          "type": "uint256"
        },
        {
          "indexed": false,
          "internalType": "uint256",
          "name": "endAt",
          "type": "uint256"
        }
      ],
      "name": "AuctionConfigured",
      "type": "event"
    },
    {
      "anonymous": false,
      "inputs": [
        {
          "indexed": true,
          "internalType": "bytes32",
          "name": "bidId",
          "type": "bytes32"
        }
      ],
      "name": "BidEvaluated",
      "type": "event"
    },
    {
      "anonymous": false,
      "inputs": [
        {
          "indexed": true,
          "internalType": "bytes32",
          "name": "bidId",
          "type": "bytes32"
        },
        {
          "indexed": false,
          "internalType": "uint8",
          "name": "flag",
          "type": "uint8"
        }
      ],
      "name": "BidOutcomeRevealed",
      "type": "event"
    },
    {
      "anonymous": false,
      "inputs": [
        {
          "indexed": true,
          "internalType": "bytes32",
          "name": "bidId",
          "type": "bytes32"
        },
        {
          "indexed": true,
          "internalType": "address",
          "name": "bidder",
          "type": "address"
        }
      ],
      "name": "BidSubmitted",
      "type": "event"
    },
    {
      "inputs": [],
      "name": "config",
      "outputs": [
        {
          "internalType": "uint256",
          "name": "startAt",
          "type": "uint256"
        },
        {
          "internalType": "uint256",
          "name": "endAt",
          "type": "uint256"
        },
        {
          "internalType": "euint64",
          "name": "reserveCipher",
          "type": "bytes32"
        }
      ],
      "stateMutability": "view",
      "type": "function"
    },
    {
      "inputs": [
        {
          "internalType": "bytes32",
          "name": "bidId",
          "type": "bytes32"
        }
      ],
      "name": "evaluateBid",
      "outputs": [],
      "stateMutability": "nonpayable",
      "type": "function"
    },
    {
      "inputs": [
        {
          "internalType": "bytes32",
          "name": "bidId",
          "type": "bytes32"
        }
      ],
      "name": "getBidOutcomeHandle",
      "outputs": [
        {
          "internalType": "euint8",
          "name": "",
          "type": "bytes32"
        }
      ],
      "stateMutability": "view",
      "type": "function"
    },
    {
      "inputs": [],
      "name": "protocolId",
      "outputs": [
        {
          "internalType": "uint256",
          "name": "",
          "type": "uint256"
        }
      ],
      "stateMutability": "pure",
      "type": "function"
    },
    {
      "inputs": [
        {
          "internalType": "bytes32",
          "name": "bidId",
          "type": "bytes32"
        },
        {
          "internalType": "uint8",
          "name": "plainFlag",
          "type": "uint8"
        }
      ],
      "name": "revealBidOutcome",
      "outputs": [],
      "stateMutability": "nonpayable",
      "type": "function"
    },
    {
      "inputs": [
        {
          "internalType": "bytes32",
          "name": "bidId",
          "type": "bytes32"
        },
        {
          "internalType": "externalEuint64",
          "name": "amountExt",
          "type": "bytes32"
        },
        {
          "internalType": "bytes",
          "name": "amountProof",
          "type": "bytes"
        },
        {
          "internalType": "externalEuint32",
          "name": "lotExt",
          "type": "bytes32"
        },
        {
          "internalType": "bytes",
          "name": "lotProof",
          "type": "bytes"
        },
        {
          "internalType": "externalEuint8",
          "name": "penaltyExt",
          "type": "bytes32"
        },
        {
          "internalType": "bytes",
          "name": "penaltyProof",
          "type": "bytes"
        }
      ],
      "name": "submitBid",
      "outputs": [],
      "stateMutability": "nonpayable",
      "type": "function"
    }
  ],
  "bytecode": "0x608060409080825234620003df5760009062001153803803809162000025828562000400565b83398101608082820312620003db5781516020808401518685015160608601516001600160401b039694959294878211620003d757019082601f83011215620003d357815191878311620003bf57601f19928a51916200008d8786601f850116018462000400565b81835286830195878383010111620003bb57908587620000ae930162000424565b8860608b51620000be81620003e4565b8281528288820152828d8201520152895191620000db83620003e4565b73687820221192c5b662b25367f70076a37bc79b6c938484528b606073848b0066793bcc60346da1f49049357399b8d59595868a82015273a02cda4ca3a71d7c46997716f4283aa851c288128093820152731364cbbf2cdf5032c47d8226a6f6fbd2afcdacac918291015260018060a01b0319917f9e7b61f58c47dc699ac88507c4f5bb9f121c03808c5676a8078fe583e464970097838954161788557f9e7b61f58c47dc699ac88507c4f5bb9f121c03808c5676a8078fe583e464970187848254161790557f9e7b61f58c47dc699ac88507c4f5bb9f121c03808c5676a8078fe583e464970290838254161790557f9e7b61f58c47dc699ac88507c4f5bb9f121c03808c5676a8078fe583e464970391825416179055878910156200038e57918a60a488959362000242958f601f90519a8b988997889563196d0b9b60e01b87526004870152336024870152608060448701525180928160848801528787019062000424565b60056064850152011681010301925af19182156200034b57879262000359575b50546001600160a01b0316803b15620003555786809160448a5180948193630f8e573b60e21b83528760048401523360248401525af180156200034b5762000322575b5086519460608601908111868210176200030c577fab183a7db8606d8f4ad89a7558579633a70b6fb95c8de825c29877ae6d4406599682898098889482528481528787820152015255826001556002558351928352820152a151610d0990816200044a8239f35b634e487b7160e01b600052604160045260246000fd5b858197929711620003375787529438620002a5565b634e487b7160e01b82526041600452602482fd5b88513d89823e3d90fd5b8680fd5b9091508281813d831162000386575b62000374818362000400565b81010312620003555751903862000262565b503d62000368565b8b5162461bcd60e51b815260048101889052600660248201526574696d696e6760d01b6044820152606490fd5b8a80fd5b634e487b7160e01b89526041600452602489fd5b8780fd5b8880fd5b8280fd5b600080fd5b608081019081106001600160401b038211176200030c57604052565b601f909101601f19168101906001600160401b038211908210176200030c57604052565b60005b838110620004385750506000910152565b81810151838201526020016200042756fe608080604052600436101561001357600080fd5b60003560e01c90816379502c55146109875750806386c289301461090657806389cc841c146105f85780638ed54b4d146105a3578063da1f12ab146105865763e7c4986c1461006157600080fd5b346104645760e03660031901126104645767ffffffffffffffff604435818111610464576100939036906004016109b3565b9190608435828111610464576100ad9036906004016109b3565b909260c435908111610464576100c79036906004016109b3565b9390926000544210801561057b575b6105695761010d906004356000526003602052604060002096336bffffffffffffffffffffffff60a01b8954161788553691610a2d565b9160018060a01b03600080516020610c948339815191525416604051809463196d0b9b60e01b825260243560048301523360248301526080604483015280519081608484015260005b8281106105515750509181600060a4828683836020998401015260056064830152601f801991011681010301925af19283156104585760009361051d575b50600080516020610cb4833981519152546001600160a01b031692833b1561046457604051630f8e573b60e21b815260048101829052336024820152936000908590604490829084905af1938415610458576101fc9461050e575b5060018701553691610a2d565b9160018060a01b03600080516020610c948339815191525416604051809463196d0b9b60e01b825260643560048301523360248301526080604483015280519081608484015260005b8281106104f65750509181600060a4828683836020998401015260046064830152601f801991011681010301925af1928315610458576000936104c2575b50600080516020610cb4833981519152546001600160a01b031692833b1561046457604051630f8e573b60e21b815260048101829052336024820152936000908590604490829084905af1938415610458576102eb946104b3575b5060028501553691610a2d565b60018060a01b03600080516020610c948339815191525416604051809263196d0b9b60e01b825260a43560048301523360248301526080604483015280519081608484015260005b82811061049b5750509181600060a4828683836020998401015260026064830152601f801991011681010301925af190811561045857600091610469575b50600080516020610cb4833981519152546001600160a01b031690813b1561046457604051630f8e573b60e21b815260048101829052336024820152916000908390604490829084905af19182156104585761040892610449575b5060038301908155610400600484019360ff19948581541690556103f560018201543090610c28565b600230910154610c28565b309054610c28565b60043560005260056020526040600020908154169055336004357f6337f5e5b107f064f052d6f13e2dea40cfa8b0eaf623cf57fdd838a958fd1213600080a3005b610452906109e1565b386103cc565b6040513d6000823e3d90fd5b600080fd5b90506020813d602011610493575b8161048460209383610a0b565b81010312610464575138610371565b3d9150610477565b602082820181015160a4888401015286945001610333565b6104bc906109e1565b386102de565b9092506020813d6020116104ee575b816104de60209383610a0b565b8101031261046457519138610283565b3d91506104d1565b602082820181015160a48a8401015288945001610245565b610517906109e1565b386101ef565b9092506020813d602011610549575b8161053960209383610a0b565b8101031261046457519138610194565b3d915061052c565b602082820181015160a48a8401015288945001610156565b604051631ea9e47360e11b8152600490fd5b5060015442116100d6565b346104645760003660031901126104645760206040516127118152f35b346104645760203660031901126104645760043580600052600560205260ff60406000205416156105e65760005260046020526020604060002054604051908152f35b6040516301c66c4760e61b8152600490fd5b34610464576020806003193601126104645760043590816000526003815260406000209060018060a01b0380835416156108f4576001830154906002549382156108e4575b84156108d4575b83600080516020610c94833981519152956064848854169560006040519788948593631391547f60e01b8552600485015260248401528160448401525af1928315610458576000936108a4575b50600301548361069f610b04565b8215610894575b8015610886575b6064848854169360006040519586948593631d44e90160e21b8552600485015260248401528160448401525af18015610458578491600091610857575b50808415610847575b15610839575b606483875416946000604051968794859363d99882d560e01b8552600485015260248401528160448401525af18015610458578392600091610808575b506064906000610744610b04565b9361074d610b89565b9754166040519788958694637702dcff60e01b86526004860152602485015260448401525af1918215610458576000926107d8575b509060056107b192846000526004815282604060002055526040600020600160ff198254161790553090610c28565b7f7c3d2ec64ab6568fefe32d78a4546ddbc134dc57f78b352128b569c2f6dd07db600080a2005b91508082813d8311610801575b6107ef8183610a0b565b81010312610464579051906005610782565b503d6107e5565b83819492503d8311610832575b61081f8183610a0b565b8101031261046457606483925190610736565b503d610815565b50610842610bd9565b6106f9565b9350610851610bd9565b936106f3565b82819392503d831161087f575b61086e8183610a0b565b8101031261046457839051876106ea565b503d610864565b5061088f610b89565b6106ad565b915061089e610b89565b916106a6565b9092508381813d83116108cd575b6108bc8183610a0b565b810103126104645751916003610691565b503d6108b2565b93506108de610a74565b93610644565b91506108ee610a74565b9161063d565b604051632d5b5c3760e01b8152600490fd5b346104645760403660031901126104645760043560243560ff81168091036104645781600052600560205260ff60406000205416156105e65760207f3485f7e4e34b4399cdc6c3e69bda7f17ec27ec161fdcaffdc3f2a32a7257f7cb9183600052600382526004604060002001600160ff19825416179055604051908152a2005b346104645760003660031901126104645760609060005460015460025491835260208301526040820152f35b9181601f840112156104645782359167ffffffffffffffff8311610464576020838186019501011161046457565b67ffffffffffffffff81116109f557604052565b634e487b7160e01b600052604160045260246000fd5b90601f8019910116810190811067ffffffffffffffff8211176109f557604052565b92919267ffffffffffffffff82116109f55760405191610a57601f8201601f191660200184610a0b565b829481845281830111610464578281602093846000960137010152565b60018060a01b03600080516020610c948339815191525416604051639cd07acb60e01b815260208160448160008096816004840152600560248401525af1918215610af8578092610ac457505090565b9091506020823d602011610af0575b81610ae060209383610a0b565b81010312610aed57505190565b80fd5b3d9150610ad3565b604051903d90823e3d90fd5b600080516020610c9483398151915254604051639cd07acb60e01b8152600160048201526002602482015290602090829060449082906000906001600160a01b03165af190811561045857600091610b5a575090565b90506020813d602011610b81575b81610b7560209383610a0b565b81010312610464575190565b3d9150610b68565b60018060a01b03600080516020610c948339815191525416604051639cd07acb60e01b815260208160448160008096816004840152600260248401525af1918215610af8578092610ac457505090565b60018060a01b03600080516020610c948339815191525416604051639cd07acb60e01b8152602081604481600080968160048401528160248401525af1918215610af8578092610ac457505090565b600080516020610cb4833981519152546001600160a01b031691823b1561046457604051635ca4b5b160e11b815260048101929092526001600160a01b03166024820152906000908290604490829084905af1801561045857610c885750565b610c91906109e1565b56fe9e7b61f58c47dc699ac88507c4f5bb9f121c03808c5676a8078fe583e46497019e7b61f58c47dc699ac88507c4f5bb9f121c03808c5676a8078fe583e4649700a264697066735822122046ab60c62466c2a98b8df9f3f6c4fe8a9dec3c4c7d5865bb81b59534059894fc64736f6c63430008180033",
  "linkReferences": {},
  "deployedLinkReferences": {}
}