{
  "_format": "hh-sol-artifact-1",
  "contractName": "SimpleFHEAuction",
  "sourceName": "src/SimpleFHEAuction.sol",
  "abi": [
    {
      "inputs": [],
      "name": "AlreadyBid",
      "type": "error"
    },
    {
      "inputs": [],
      "name": "AuctionAlreadyEnded",
      "type": "error"
    },
    {
      "inputs": [],
      "name": "AuctionNotActive",
      "type": "error"
    },
    {
      "inputs": [],
      "name": "AuctionNotEnded",
      "type": "error"
    },
    {
      "inputs": [],
      "name": "InvalidPrice",
      "type": "error"
    },
    {
      "inputs": [],
      "name": "InvalidTime",
      "type": "error"
    },
    {
      "inputs": [],
      "name": "OnlySeller",
      "type": "error"
    },
    {
      "anonymous": false,
      "inputs": [
        {
          "indexed": true,
          "internalType": "uint256",
          "name": "auctionId",
          "type": "uint256"
        }
      ],
      "name": "AuctionCancelled",
      "type": "event"
    },
    {
      "anonymous": false,
      "inputs": [
        {
          "indexed": true,
          "internalType": "uint256",
          "name": "auctionId",
          "type": "uint256"
        },
        {
          "indexed": true,
          "internalType": "address",
          "name": "seller",
          "type": "address"
        },
        {
          "indexed": false,
          "internalType": "uint256",
          "name": "startPrice",
          "type": "uint256"
        },
        {
          "indexed": false,
          "internalType": "uint256",
          "name": "startTime",
          "type": "uint256"
        },
        {
          "indexed": false,
          "internalType": "uint256",
          "name": "endTime",
          "type": "uint256"
        }
      ],
      "name": "AuctionCreated",
      "type": "event"
    },
    {
      "anonymous": false,
      "inputs": [
        {
          "indexed": true,
          "internalType": "uint256",
          "name": "auctionId",
          "type": "uint256"
        },
        {
          "indexed": true,
          "internalType": "address",
          "name": "winner",
          "type": "address"
        },
        {
          "indexed": false,
          "internalType": "uint256",
          "name": "timestamp",
          "type": "uint256"
        }
      ],
      "name": "AuctionEnded",
      "type": "event"
    },
    {
      "anonymous": false,
      "inputs": [
        {
          "indexed": true,
          "internalType": "uint256",
          "name": "auctionId",
          "type": "uint256"
        },
        {
          "indexed": true,
          "internalType": "address",
          "name": "bidder",
          "type": "address"
        },
        {
          "indexed": false,
          "internalType": "uint256",
          "name": "timestamp",
          "type": "uint256"
        }
      ],
      "name": "BidSubmitted",
      "type": "event"
    },
    {
      "inputs": [
        {
          "internalType": "uint256",
          "name": "",
          "type": "uint256"
        },
        {
          "internalType": "uint256",
          "name": "",
          "type": "uint256"
        }
      ],
      "name": "auctionBids",
      "outputs": [
        {
          "internalType": "address",
          "name": "bidder",
          "type": "address"
        },
        {
          "internalType": "euint64",
          "name": "encryptedAmount",
          "type": "bytes32"
        },
        {
          "internalType": "uint256",
          "name": "timestamp",
          "type": "uint256"
        }
      ],
      "stateMutability": "view",
      "type": "function"
    },
    {
      "inputs": [],
      "name": "auctionCounter",
      "outputs": [
        {
          "internalType": "uint256",
          "name": "",
          "type": "uint256"
        }
      ],
      "stateMutability": "view",
      "type": "function"
    },
    {
      "inputs": [
        {
          "internalType": "uint256",
          "name": "",
          "type": "uint256"
        }
      ],
      "name": "auctions",
      "outputs": [
        {
          "internalType": "address",
          "name": "seller",
          "type": "address"
        },
        {
          "internalType": "uint256",
          "name": "startPrice",
          "type": "uint256"
        },
        {
          "internalType": "uint256",
          "name": "startTime",
          "type": "uint256"
        },
        {
          "internalType": "uint256",
          "name": "endTime",
          "type": "uint256"
        },
        {
          "internalType": "address",
          "name": "highestBidder",
          "type": "address"
        },
        {
          "internalType": "euint64",
          "name": "highestBid",
          "type": "bytes32"
        },
        {
          "internalType": "bool",
          "name": "ended",
          "type": "bool"
        },
        {
          "internalType": "bool",
          "name": "cancelled",
          "type": "bool"
        }
      ],
      "stateMutability": "view",
      "type": "function"
    },
    {
      "inputs": [
        {
          "internalType": "uint256",
          "name": "auctionId",
          "type": "uint256"
        }
      ],
      "name": "cancelAuction",
      "outputs": [],
      "stateMutability": "nonpayable",
      "type": "function"
    },
    {
      "inputs": [
        {
          "internalType": "uint256",
          "name": "startPrice",
          "type": "uint256"
        },
        {
          "internalType": "uint256",
          "name": "duration",
          "type": "uint256"
        }
      ],
      "name": "createAuction",
      "outputs": [
        {
          "internalType": "uint256",
          "name": "",
          "type": "uint256"
        }
      ],
      "stateMutability": "nonpayable",
      "type": "function"
    },
    {
      "inputs": [
        {
          "internalType": "uint256",
          "name": "auctionId",
          "type": "uint256"
        }
      ],
      "name": "endAuction",
      "outputs": [],
      "stateMutability": "nonpayable",
      "type": "function"
    },
    {
      "inputs": [
        {
          "internalType": "uint256",
          "name": "auctionId",
          "type": "uint256"
        }
      ],
      "name": "getAuction",
      "outputs": [
        {
          "internalType": "address",
          "name": "seller",
          "type": "address"
        },
        {
          "internalType": "uint256",
          "name": "startPrice",
          "type": "uint256"
        },
        {
          "internalType": "uint256",
          "name": "startTime",
          "type": "uint256"
        },
        {
          "internalType": "uint256",
          "name": "endTime",
          "type": "uint256"
        },
        {
          "internalType": "address",
          "name": "highestBidder",
          "type": "address"
        },
        {
          "internalType": "bool",
          "name": "ended",
          "type": "bool"
        },
        {
          "internalType": "bool",
          "name": "cancelled",
          "type": "bool"
        },
        {
          "internalType": "uint256",
          "name": "bidCount",
          "type": "uint256"
        }
      ],
      "stateMutability": "view",
      "type": "function"
    },
    {
      "inputs": [],
      "name": "getTotalAuctions",
      "outputs": [
        {
          "internalType": "uint256",
          "name": "",
          "type": "uint256"
        }
      ],
      "stateMutability": "view",
      "type": "function"
    },
    {
      "inputs": [
        {
          "internalType": "uint256",
          "name": "",
          "type": "uint256"
        },
        {
          "internalType": "address",
          "name": "",
          "type": "address"
        }
      ],
      "name": "hasBid",
      "outputs": [
        {
          "internalType": "bool",
          "name": "",
          "type": "bool"
        }
      ],
      "stateMutability": "view",
      "type": "function"
    },
    {
      "inputs": [
        {
          "internalType": "uint256",
          "name": "auctionId",
          "type": "uint256"
        },
        {
          "internalType": "address",
          "name": "user",
          "type": "address"
        }
      ],
      "name": "hasUserBid",
      "outputs": [
        {
          "internalType": "bool",
          "name": "",
          "type": "bool"
        }
      ],
      "stateMutability": "view",
      "type": "function"
    },
    {
      "inputs": [],
      "name": "protocolId",
      "outputs": [
        {
          "internalType": "uint256",
          "name": "",
          "type": "uint256"
        }
      ],
      "stateMutability": "pure",
      "type": "function"
    },
    {
      "inputs": [
        {
          "internalType": "uint256",
          "name": "auctionId",
          "type": "uint256"
        },
        {
          "internalType": "externalEuint64",
          "name": "encryptedBid",
          "type": "bytes32"
        },
        {
          "internalType": "bytes",
          "name": "bidProof",
          "type": "bytes"
        }
      ],
      "name": "submitBid",
      "outputs": [],
      "stateMutability": "nonpayable",
      "type": "function"
    }
  ],
  "bytecode": "0x608060405234610155576000606061001561015a565b828152826020820152826040820152015261002e61015a565b606073687820221192c5b662b25367f70076a37bc79b6c9182815273848b0066793bcc60346da1f49049357399b8d59580602083015273a02cda4ca3a71d7c46997716f4283aa851c2881291826040820152731364cbbf2cdf5032c47d8226a6f6fbd2afcdacac938491015260018060a01b0319937f9e7b61f58c47dc699ac88507c4f5bb9f121c03808c5676a8078fe583e464970090858254161790557f9e7b61f58c47dc699ac88507c4f5bb9f121c03808c5676a8078fe583e464970190848254161790557f9e7b61f58c47dc699ac88507c4f5bb9f121c03808c5676a8078fe583e464970290838254161790557f9e7b61f58c47dc699ac88507c4f5bb9f121c03808c5676a8078fe583e464970391825416179055604051610cbf90816101908239f35b600080fd5b60405190608082016001600160401b0381118382101761017957604052565b634e487b7160e01b600052604160045260246000fdfe608060408181526004918236101561001657600080fd5b600092833560e01c9182630121683f146108f5575081630497edce146104115781633ef14cc8146101c1578163449e8812146103fd578163571a26a0146103755781635f93de491461031957816378bd79351461028e57816396b5a755146101de578163a7e76644146101c1578163b9a2de3a1461010357508063ca96dd27146100c85763da1f12ab146100a957600080fd5b346100c457816003193601126100c457602090516127118152f35b5080fd5b50346100c457602091816100db36610ac5565b9290815260038552209060018060a01b0316600052825260ff81600020541690519015158152f35b9050346101bd5760203660031901126101bd57803590818452600160205282842090600382015442106101af5760068201805460ff811661019f5760ff8160081c1661018f5760ff19166001179055015491514281526001600160a01b0392909216917fd2aa34a4fdbbc6dff6a3e56f46e0f3ae2a31d7785ff3487aa5c95c642acea50190602090a380f35b85516334dc687f60e11b81528390fd5b855163d02e774d60e01b81528390fd5b8351636463738960e01b8152fd5b8280fd5b5050346100c457816003193601126100c457602091549051908152f35b9050346101bd5760203660031901126101bd578035808452600160205282842080549193916001600160a01b0316330361028057838552600260205281852054610272576006019182549160ff831661026557505061ff0019166101001790557f2809c7e17bf978fbc7194c0a694b638c4215e9140cacc6c38ca36010b45697df8280a280f35b5163d02e774d60e01b8152fd5b50516334dc687f60e11b8152fd5b50516342e8fb9360e11b8152fd5b919050346101bd5760203660031901126101bd5760ff6101009383358152600160205282812060018060a01b03948582541695600183015495806006600286015493600387015495870154169501549560026020522054968151988952602089015287015260608601526080850152818116151560a085015260081c16151560c083015260e0820152f35b5050346100c45761032936610aaf565b929081526002602052818120908154841015610372575060609261034c91610aeb565b5060018060a01b0381541691600260018301549201549181519384526020840152820152f35b80fd5b919050346101bd5760203660031901126101bd578060ff91610100948435815260016020522060018060a01b0391828254169460018301549360028401549060038501549285015416926006600586015495015495815198895260208901528701526060860152608085015260a0840152818116151560c084015260081c16151560e0820152f35b5050346100c457602091816100db36610ac5565b8383346100c45760603660031901126100c457823560249160443567ffffffffffffffff8082116108f157366023830112156108f15781870135968188116108ed57368689850101116108ed5784875260209560018752848820906002820154421080156108e0575b61018f57600682015460ff81169081156108d2575b5061018f5786895260038852858920338a52885260ff868a2054166108c25788888b83999a9b9c601f199a8b996104cf858d519c601f860116018c610b47565b828b5201838a01378701015260018060a01b03897f9e7b61f58c47dc699ac88507c4f5bb9f121c03808c5676a8078fe583e464970196828854168d8a519b8c9363196d0b9b60e01b855287358a860152338886015260806044860152805190816084870152835b82811061089e575050848392601f83839660a480968601015260056064850152011681010301925af1978815610894578b98610861575b508a817f9e7b61f58c47dc699ac88507c4f5bb9f121c03808c5676a8078fe583e46497005416803b156100c4578851630f8e573b60e21b81528681018b8152336020820152909291839182908490829060400103925af1801561085757610844575b50888b5260028a52868b208751909560608201908111828210176108305788523381528a810195898752888201904282528054906801000000000000000082101561081e579061062491600182018155610aeb565b92909261080d5790836002925116976bffffffffffffffffffffffff60a01b988985541617845551600184015551910155888b5260038a52868b20336000528a5286600020600160ff198254161790558a60058401968754928c8b8c156107ff575b888c87156107e7575b9086606492868854169051998a9586946385362ee760e01b86528501528b8401528160448401525af19384156107dd579183918e95938d9795946107a4575b509060649392918b54915416908c519788968795637702dcff60e01b87528c87015285015260448401525af190811561079a578a91610758575b508455018054909116331790557f177554f051f4aa1f0d0310334854b429baeecdb5a96bc329a26fd0cb7c8a7be39261074c919061074590610b69565b5054610b69565b5051924284523393a380f35b929691949390508883813d8311610793575b6107748183610b47565b8101031261078e5791519095929391929190610745610708565b600080fd5b503d61076a565b86513d8c823e3d90fd5b9592509550915083813d83116107d6575b6107bf8183610b47565b8101031261078e57915189938c938e9160646106ce565b503d6107b5565b8a513d85823e3d90fd5b9650606490866107f5610bea565b989192505061068f565b50610808610bea565b610686565b634e487b7160e01b8e528d8752848efd5b634e487b7160e01b8f5260418852858ffd5b83604187634e487b7160e01b600052526000fd5b610850909b919b610b1d565b998b6105cf565b88513d8e823e3d90fd5b9097508981813d831161088d575b6108798183610b47565b810103126108895751968b61056d565b8a80fd5b503d61086f565b87513d8d823e3d90fd5b919496929590935060a4828481870101519201015201928f91928f95938e95610536565b8551630697833b60e11b81528390fd5b60ff915060081c168b61048f565b506003820154421161047a565b8680fd5b8580fd5b838591346101bd5761090636610aaf565b93909184158015610aa3575b610a9557508115610a86578054936000198514610a7357600185018255420190814211610a6057610941610bea565b845190610100820182811067ffffffffffffffff821117610a4d5791600691602099899489523383528a8301888152898401934285526060810192898452608082019389855260a083019586528c60c084019a808c5260e085019a818c528152602060019052209660018060a01b0380945116946bffffffffffffffffffffffff60a01b95868a541617895551600189015551600288015551600387015585019251169082541617905551600582015501915115159060ff61ff0084549251151560081b1692169061ffff1916171790558251918252428583015282820152827f05f9bf100dd0ca9f37f08e0526690286d357ed7d6c5a4ac29730440b6e2dfd6260603393a351908152f35b634e487b7160e01b845260418952602484fd5b634e487b7160e01b815260118652602490fd5b634e487b7160e01b825260118652602482fd5b825162bfc92160e01b81528590fd5b6337bf561360e11b81528590fd5b5062278d008511610912565b604090600319011261078e576004359060243590565b604090600319011261078e57600435906024356001600160a01b038116810361078e5790565b8054821015610b07576000526003602060002091020190600090565b634e487b7160e01b600052603260045260246000fd5b67ffffffffffffffff8111610b3157604052565b634e487b7160e01b600052604160045260246000fd5b90601f8019910116810190811067ffffffffffffffff821117610b3157604052565b7f9e7b61f58c47dc699ac88507c4f5bb9f121c03808c5676a8078fe583e4649700546001600160a01b0316803b1561078e57604051635ca4b5b160e11b815260048101839052306024820152906000908290604490829084905af18015610bde57610bd2575090565b610bdb90610b1d565b90565b6040513d6000823e3d90fd5b60018060a01b037f9e7b61f58c47dc699ac88507c4f5bb9f121c03808c5676a8078fe583e46497015416604051639cd07acb60e01b815260208160448160008096816004840152600560248401525af1918215610c7d578092610c4c57505090565b9091506020823d602011610c75575b81610c6860209383610b47565b8101031261037257505190565b3d9150610c5b565b604051903d90823e3d90fdfea264697066735822122096f97e078346a1fcc01a43cc00986b9c3d5e31913b97fa9242f78a583e376b7964736f6c63430008180033",
  "linkReferences": {},
  "deployedLinkReferences": {}
}